{
  "contractName": "WorkerRegistry",
  "abi": [
    {
      "inputs": [],
      "payable": false,
      "stateMutability": "nonpayable",
      "type": "constructor"
    },
    {
      "constant": false,
      "inputs": [
        {
          "internalType": "bytes32",
          "name": "workerID",
          "type": "bytes32"
        },
        {
          "internalType": "uint256",
          "name": "workerType",
          "type": "uint256"
        },
        {
          "internalType": "bytes32",
          "name": "organizationId",
          "type": "bytes32"
        },
        {
          "internalType": "bytes32[]",
          "name": "appTypeIds",
          "type": "bytes32[]"
        },
        {
          "internalType": "string",
          "name": "details",
          "type": "string"
        }
      ],
      "name": "workerRegister",
      "outputs": [],
      "payable": false,
      "stateMutability": "nonpayable",
      "type": "function"
    },
    {
      "constant": false,
      "inputs": [
        {
          "internalType": "bytes32",
          "name": "workerID",
          "type": "bytes32"
        },
        {
          "internalType": "string",
          "name": "details",
          "type": "string"
        }
      ],
      "name": "workerUpdate",
      "outputs": [],
      "payable": false,
      "stateMutability": "nonpayable",
      "type": "function"
    },
    {
      "constant": false,
      "inputs": [
        {
          "internalType": "bytes32",
          "name": "workerID",
          "type": "bytes32"
        },
        {
          "internalType": "uint256",
          "name": "status",
          "type": "uint256"
        }
      ],
      "name": "workerSetStatus",
      "outputs": [],
      "payable": false,
      "stateMutability": "nonpayable",
      "type": "function"
    },
    {
      "constant": true,
      "inputs": [
        {
          "internalType": "uint256",
          "name": "workerType",
          "type": "uint256"
        },
        {
          "internalType": "bytes32",
          "name": "organizationId",
          "type": "bytes32"
        },
        {
          "internalType": "bytes32",
          "name": "appTypeId",
          "type": "bytes32"
        }
      ],
      "name": "workerLookUp",
      "outputs": [
        {
          "internalType": "uint256",
          "name": "totalCount",
          "type": "uint256"
        },
        {
          "internalType": "uint256",
          "name": "lookupTag",
          "type": "uint256"
        },
        {
          "internalType": "bytes32[]",
          "name": "ids",
          "type": "bytes32[]"
        }
      ],
      "payable": false,
      "stateMutability": "view",
      "type": "function"
    },
    {
      "constant": true,
      "inputs": [
        {
          "internalType": "uint256",
          "name": "workerType",
          "type": "uint256"
        },
        {
          "internalType": "bytes32",
          "name": "organizationId",
          "type": "bytes32"
        },
        {
          "internalType": "bytes32",
          "name": "appTypeId",
          "type": "bytes32"
        },
        {
          "internalType": "uint256",
          "name": "",
          "type": "uint256"
        }
      ],
      "name": "workerLookUpNext",
      "outputs": [
        {
          "internalType": "uint256",
          "name": "totalCount",
          "type": "uint256"
        },
        {
          "internalType": "uint256",
          "name": "newLookupTag",
          "type": "uint256"
        },
        {
          "internalType": "bytes32[]",
          "name": "ids",
          "type": "bytes32[]"
        }
      ],
      "payable": false,
      "stateMutability": "view",
      "type": "function"
    },
    {
      "constant": true,
      "inputs": [
        {
          "internalType": "bytes32",
          "name": "workerID",
          "type": "bytes32"
        }
      ],
      "name": "workerRetrieve",
      "outputs": [
        {
          "internalType": "uint256",
          "name": "status",
          "type": "uint256"
        },
        {
          "internalType": "uint256",
          "name": "workerType",
          "type": "uint256"
        },
        {
          "internalType": "bytes32",
          "name": "organizationId",
          "type": "bytes32"
        },
        {
          "internalType": "bytes32[]",
          "name": "appTypeIds",
          "type": "bytes32[]"
        },
        {
          "internalType": "string",
          "name": "details",
          "type": "string"
        }
      ],
      "payable": false,
      "stateMutability": "view",
      "type": "function"
    }
  ],
  "bytecode": "0x608060405234801561001057600080fd5b50610d85806100206000396000f3fe608060405234801561001057600080fd5b50600436106100625760003560e01c80632092b3d1146100675780636dc536271461009f5780637f6a1ae31461014457806383c17736146102b1578063bb3fdd7114610376578063c4dcd6351461047a575b600080fd5b61009d6004803603604081101561007d57600080fd5b810190808035906020019092919080359060200190929190505050610529565b005b6100df600480360360608110156100b557600080fd5b8101908080359060200190929190803590602001909291908035906020019092919050505061058e565b6040518084815260200183815260200180602001828103825283818151815260200191508051906020019060200280838360005b8381101561012e578082015181840152602081019050610113565b5050505090500194505050505060405180910390f35b6102af600480360360a081101561015a57600080fd5b810190808035906020019092919080359060200190929190803590602001909291908035906020019064010000000081111561019557600080fd5b8201836020820111156101a757600080fd5b803590602001918460208302840111640100000000831117156101c957600080fd5b919080806020026020016040519081016040528093929190818152602001838360200280828437600081840152601f19601f8201169050808301925050505050505091929192908035906020019064010000000081111561022957600080fd5b82018360208201111561023b57600080fd5b8035906020019184600183028401116401000000008311171561025d57600080fd5b91908080601f016020809104026020016040519081016040528093929190818152602001838380828437600081840152601f19601f8201169050808301925050505050505091929192905050506105af565b005b610374600480360360408110156102c757600080fd5b8101908080359060200190929190803590602001906401000000008111156102ee57600080fd5b82018360208201111561030057600080fd5b8035906020019184600183028401116401000000008311171561032257600080fd5b91908080601f016020809104026020016040519081016040528093929190818152602001838380828437600081840152601f19601f8201169050808301925050505050505091929192905050506109fa565b005b6103a26004803603602081101561038c57600080fd5b8101908080359060200190929190505050610a56565b604051808681526020018581526020018481526020018060200180602001838103835285818151815260200191508051906020019060200280838360005b838110156103fb5780820151818401526020810190506103e0565b50505050905001838103825284818151815260200191508051906020019080838360005b8381101561043a57808201518184015260208101905061041f565b50505050905090810190601f1680156104675780820380516001836020036101000a031916815260200191505b5097505050505050505060405180910390f35b6104c46004803603608081101561049057600080fd5b8101908080359060200190929190803590602001909291908035906020019092919080359060200190929190505050610b8d565b6040518084815260200183815260200180602001828103825283818151815260200191508051906020019060200280838360005b838110156105135780820151818401526020810190506104f8565b5050505090500194505050505060405180910390f35b6000600481111561053657fe5b60008084815260200190815260200160002060000154141561055757600080fd5b6000600481111561056457fe5b81141561057057600080fd5b80600080848152602001908152602001600020600001819055505050565b60008060606105a08686866000610b8d565b92509250925093509350939050565b60008060008781526020019081526020016000209050600060048111156105d257fe5b8160000154146105e157600080fd5b600160048111156105ee57fe5b816000018190555084816001018190555083816002018190555082816003019080519060200190610620929190610c39565b5081816004019080519060200190610639929190610c86565b50600085141561064857600080fd5b6000801b84141561065857600080fd5b6001600080815260200190815260200160002060008060001b815260200190815260200160002060008060001b81526020019081526020016000208690806001815401808255809150509060018203906000526020600020016000909192909190915055506001600086815260200190815260200160002060008060001b815260200190815260200160002060008060001b815260200190815260200160002086908060018154018082558091505090600182039060005260206000200160009091929091909150555060016000808152602001908152602001600020600085815260200190815260200160002060008060001b815260200190815260200160002086908060018154018082558091505090600182039060005260206000200160009091929091909150555060016000868152602001908152602001600020600085815260200190815260200160002060008060001b815260200190815260200160002086908060018154018082558091505090600182039060005260206000200160009091929091909150555060008090505b83518110156109f1576000801b84828151811061080557fe5b6020026020010151141561081857600080fd5b6001600080815260200190815260200160002060008060001b8152602001908152602001600020600085838151811061084d57fe5b602002602001015181526020019081526020016000208790806001815401808255809150509060018203906000526020600020016000909192909190915055506001600087815260200190815260200160002060008060001b815260200190815260200160002060008583815181106108c257fe5b60200260200101518152602001908152602001600020879080600181540180825580915050906001820390600052602060002001600090919290919091505550600160008081526020019081526020016000206000868152602001908152602001600020600085838151811061093457fe5b6020026020010151815260200190815260200160002087908060018154018082558091505090600182039060005260206000200160009091929091909150555060016000878152602001908152602001600020600086815260200190815260200160002060008583815181106109a657fe5b602002602001015181526020019081526020016000208790806001815401808255809150509060018203906000526020600020016000909192909190915055508060010190506107ec565b50505050505050565b60006004811115610a0757fe5b600080848152602001908152602001600020600001541415610a2857600080fd5b806000808481526020019081526020016000206004019080519060200190610a51929190610c86565b505050565b600080600060608060008060008881526020019081526020016000209050806000015481600101548260020154836003018460040181805480602002602001604051908101604052809291908181526020018280548015610ad657602002820191906000526020600020905b815481526020019060010190808311610ac2575b50505050509150808054600181600116156101000203166002900480601f016020809104026020016040519081016040528092919081815260200182805460018160011615610100020316600290048015610b725780601f10610b4757610100808354040283529160200191610b72565b820191906000526020600020905b815481529060010190602001808311610b5557829003601f168201915b50505050509050955095509550955095505091939590929450565b6000806060600060016000898152602001908152602001600020600088815260200190815260200160002060008781526020019081526020016000209050808054905060008281915080805480602002602001604051908101604052809291908181526020018280548015610c2157602002820191906000526020600020905b815481526020019060010190808311610c0d575b50505050509050935093509350509450945094915050565b828054828255906000526020600020908101928215610c75579160200282015b82811115610c74578251825591602001919060010190610c59565b5b509050610c829190610d06565b5090565b828054600181600116156101000203166002900490600052602060002090601f016020900481019282601f10610cc757805160ff1916838001178555610cf5565b82800160010185558215610cf5579182015b82811115610cf4578251825591602001919060010190610cd9565b5b509050610d029190610d2b565b5090565b610d2891905b80821115610d24576000816000905550600101610d0c565b5090565b90565b610d4d91905b80821115610d49576000816000905550600101610d31565b5090565b9056fea265627a7a7231582001ab799d8bcbde74be35477d2d6755a4895ff6a6e3adb3457a278d338fc1364a64736f6c63430005100032",
  "source": "/* Copyright 2019 iExec Blockchain Tech\n*\n* Licensed under the Apache License, Version 2.0 (the \"License\");\n* you may not use this file except in compliance with the License.\n* You may obtain a copy of the License at\n*\n*     http://www.apache.org/licenses/LICENSE-2.0\n*\n* Unless required by applicable law or agreed to in writing, software\n* distributed under the License is distributed on an \"AS IS\" BASIS,\n* WITHOUT WARRANTIES OR CONDITIONS OF ANY KIND, either express or implied.\n* See the License for the specific language governing permissions and\n* limitations under the License.\n*/\n\npragma solidity ^0.5.0;\n\ncontract WorkerRegistry\n{\n\tenum WorkerStatus\n\t{\n\t\tNULL,\n\t\tACTIVE,\n\t\tOFFLINE,\n\t\tDECOMMISSIONED,\n\t\tCOMPROMISED\n\t}\n\n\tstruct Worker\n\t{\n\t\tuint256   status;\n\t\tuint256   workerType;\n\t\tbytes32   organizationId;\n\t\tbytes32[] appTypeIds;\n\t\tstring    details;\n\t}\n\n\t// WorkerID → Worker\n\tmapping(bytes32 => Worker) private m_workers;\n\n\t// workerType → organizationId → appTypeId → WorkerID[]\n\tmapping(uint256 => mapping(bytes32 => mapping(bytes32 => bytes32[]))) m_workersDB;\n\n\tconstructor()\n\tpublic\n\t{}\n\n\tfunction workerRegister(\n\t\tbytes32          workerID,\n\t\tuint256          workerType,\n\t\tbytes32          organizationId,\n\t\tbytes32[] memory appTypeIds,\n\t\tstring    memory details\n\t) public {\n\t\tWorker storage worker = m_workers[workerID];\n\n\t\trequire(worker.status == uint256(WorkerStatus.NULL));\n\t\tworker.status         = uint256(WorkerStatus.ACTIVE);\n\t\tworker.workerType     = workerType;\n\t\tworker.organizationId = organizationId;\n\t\tworker.appTypeIds     = appTypeIds;\n\t\tworker.details        = details;\n\n\t\trequire(workerType     != uint256(0));\n\t\trequire(organizationId != bytes32(0));\n\t\tm_workersDB[uint256(0)][bytes32(0)    ][bytes32(0)].push(workerID);\n\t\tm_workersDB[workerType][bytes32(0)    ][bytes32(0)].push(workerID);\n\t\tm_workersDB[uint256(0)][organizationId][bytes32(0)].push(workerID);\n\t\tm_workersDB[workerType][organizationId][bytes32(0)].push(workerID);\n\n\t\tfor (uint256 p = 0; p < appTypeIds.length; ++p)\n\t\t{\n\t\t\trequire(appTypeIds[p] != bytes32(0));\n\t\t\tm_workersDB[uint256(0)][bytes32(0)    ][appTypeIds[p]].push(workerID);\n\t\t\tm_workersDB[workerType][bytes32(0)    ][appTypeIds[p]].push(workerID);\n\t\t\tm_workersDB[uint256(0)][organizationId][appTypeIds[p]].push(workerID);\n\t\t\tm_workersDB[workerType][organizationId][appTypeIds[p]].push(workerID);\n\t\t}\n\t}\n\n\tfunction workerUpdate(\n\t\tbytes32       workerID,\n\t\tstring memory details\n\t) public {\n\t\trequire(m_workers[workerID].status != uint256(WorkerStatus.NULL));\n\t\tm_workers[workerID].details = details;\n\t}\n\n\tfunction workerSetStatus(\n\t\tbytes32 workerID,\n\t\tuint256 status\n\t) public {\n\t\trequire(m_workers[workerID].status != uint256(WorkerStatus.NULL));\n\t\trequire(status                     != uint256(WorkerStatus.NULL));\n\t\tm_workers[workerID].status = status;\n\t}\n\n\tfunction workerLookUp(\n\t\tuint256          workerType,\n\t\tbytes32          organizationId,\n\t\tbytes32          appTypeId\n\t) public view returns(\n\t\tuint256          totalCount,\n\t\tuint256          lookupTag,\n\t\tbytes32[] memory ids\n\t) {\n\t\treturn workerLookUpNext(workerType, organizationId, appTypeId, 0);\n\t}\n\n\tfunction workerLookUpNext(\n\t\tuint256          workerType,\n\t\tbytes32          organizationId,\n\t\tbytes32          appTypeId,\n\t\tuint256          /*lookUpTag*/\n\t) public view returns(\n\t\tuint256          totalCount,\n\t\tuint256          newLookupTag,\n\t\tbytes32[] memory ids\n\t) {\n\t\tbytes32[] storage matchs = m_workersDB[workerType][organizationId][appTypeId];\n\t\treturn (matchs.length, 0, matchs);\n\t}\n\n\tfunction workerRetrieve(\n\t\tbytes32          workerID\n\t) public view returns (\n\t\tuint256          status,\n\t\tuint256          workerType,\n\t\tbytes32          organizationId,\n\t\tbytes32[] memory appTypeIds,\n\t\tstring    memory details\n\t) {\n\t\tWorker storage worker = m_workers[workerID];\n\t\treturn (\n\t\t\tworker.status,\n\t\t\tworker.workerType,\n\t\t\tworker.organizationId,\n\t\t\tworker.appTypeIds,\n\t\t\tworker.details\n\t\t);\n\t}\n}\n",
  "sourcePath": "/home/rranjan/avalon/truffle/proxy-model/contracts/WorkerRegistry.sol",
  "compiler": {
    "name": "solc",
    "version": "0.5.16+commit.9c3226ce.Emscripten.clang"
  },
  "schemaVersion": "3.0.23",
  "updatedAt": "2020-02-06T05:46:38.958Z",
  "networkType": "ethereum",
  "devdoc": {
    "methods": {}
  },
  "userdoc": {
    "methods": {}
  }
}