{
  "contractName": "WorkOrderRegistry",
  "abi": [
    {
      "inputs": [],
      "payable": false,
      "stateMutability": "nonpayable",
      "type": "constructor"
    },
    {
      "anonymous": false,
      "inputs": [
        {
          "indexed": false,
          "internalType": "bytes32",
          "name": "requesterId",
          "type": "bytes32"
        },
        {
          "indexed": false,
          "internalType": "bytes32",
          "name": "workOrderId",
          "type": "bytes32"
        },
        {
          "indexed": false,
          "internalType": "uint256",
          "name": "workOrderStatus",
          "type": "uint256"
        },
        {
          "indexed": false,
          "internalType": "string",
          "name": "workOrderResponse",
          "type": "string"
        },
        {
          "indexed": false,
          "internalType": "uint256",
          "name": "errorCode",
          "type": "uint256"
        },
        {
          "indexed": false,
          "internalType": "bytes4",
          "name": "version",
          "type": "bytes4"
        }
      ],
      "name": "workOrderCompleted",
      "type": "event"
    },
    {
      "anonymous": false,
      "inputs": [
        {
          "indexed": true,
          "internalType": "bytes32",
          "name": "workOrderId",
          "type": "bytes32"
        },
        {
          "indexed": true,
          "internalType": "bytes32",
          "name": "workerId",
          "type": "bytes32"
        },
        {
          "indexed": true,
          "internalType": "bytes32",
          "name": "requesterId",
          "type": "bytes32"
        },
        {
          "indexed": false,
          "internalType": "string",
          "name": "workOrderRequest",
          "type": "string"
        },
        {
          "indexed": false,
          "internalType": "uint256",
          "name": "errorCode",
          "type": "uint256"
        },
        {
          "indexed": false,
          "internalType": "address",
          "name": "senderAddress",
          "type": "address"
        },
        {
          "indexed": false,
          "internalType": "bytes4",
          "name": "version",
          "type": "bytes4"
        }
      ],
      "name": "workOrderSubmitted",
      "type": "event"
    },
    {
      "constant": false,
      "inputs": [
        {
          "internalType": "bytes32",
          "name": "_workOrderID",
          "type": "bytes32"
        },
        {
          "internalType": "bytes32",
          "name": "_workerID",
          "type": "bytes32"
        },
        {
          "internalType": "bytes32",
          "name": "_requesterID",
          "type": "bytes32"
        },
        {
          "internalType": "string",
          "name": "_workOrderRequest",
          "type": "string"
        }
      ],
      "name": "workOrderSubmit",
      "outputs": [
        {
          "internalType": "uint256",
          "name": "errorCode",
          "type": "uint256"
        }
      ],
      "payable": false,
      "stateMutability": "nonpayable",
      "type": "function"
    },
    {
      "constant": false,
      "inputs": [
        {
          "internalType": "bytes32",
          "name": "_workOrderID",
          "type": "bytes32"
        },
        {
          "internalType": "string",
          "name": "_workOrderResponse",
          "type": "string"
        }
      ],
      "name": "workOrderComplete",
      "outputs": [
        {
          "internalType": "uint256",
          "name": "errorCode",
          "type": "uint256"
        }
      ],
      "payable": false,
      "stateMutability": "nonpayable",
      "type": "function"
    },
    {
      "constant": true,
      "inputs": [
        {
          "internalType": "bytes32",
          "name": "_workOrderID",
          "type": "bytes32"
        }
      ],
      "name": "workOrderGet",
      "outputs": [
        {
          "internalType": "uint256",
          "name": "status",
          "type": "uint256"
        },
        {
          "internalType": "bytes32",
          "name": "workerID",
          "type": "bytes32"
        },
        {
          "internalType": "string",
          "name": "request",
          "type": "string"
        },
        {
          "internalType": "string",
          "name": "response",
          "type": "string"
        },
        {
          "internalType": "uint256",
          "name": "errorCode",
          "type": "uint256"
        }
      ],
      "payable": false,
      "stateMutability": "view",
      "type": "function"
    }
  ],
  "bytecode": "0x608060405234801561001057600080fd5b50610902806100206000396000f3fe608060405234801561001057600080fd5b50600436106100415760003560e01c806336e30f1a1461004657806364b5e7ce1461016e578063a5b4b53214610247575b600080fd5b6100726004803603602081101561005c57600080fd5b8101908080359060200190929190505050610334565b604051808681526020018581526020018060200180602001848152602001838103835286818151815260200191508051906020019080838360005b838110156100c85780820151818401526020810190506100ad565b50505050905090810190601f1680156100f55780820380516001836020036101000a031916815260200191505b50838103825285818151815260200191508051906020019080838360005b8381101561012e578082015181840152602081019050610113565b50505050905090810190601f16801561015b5780820380516001836020036101000a031916815260200191505b5097505050505050505060405180910390f35b6102316004803603604081101561018457600080fd5b8101908080359060200190929190803590602001906401000000008111156101ab57600080fd5b8201836020820111156101bd57600080fd5b803590602001918460018302840111640100000000831117156101df57600080fd5b91908080601f016020809104026020016040519081016040528093929190818152602001838380828437600081840152601f19601f8201169050808301925050505050505091929192905050506104b4565b6040518082815260200191505060405180910390f35b61031e6004803603608081101561025d57600080fd5b810190808035906020019092919080359060200190929190803590602001909291908035906020019064010000000081111561029857600080fd5b8201836020820111156102aa57600080fd5b803590602001918460018302840111640100000000831117156102cc57600080fd5b91908080601f016020809104026020016040519081016040528093929190818152602001838380828437600081840152601f19601f820116905080830192505050505050509192919290505050610664565b6040518082815260200191505060405180910390f35b60008060608060008060008088815260200190815260200160002090508060000154816002015482600401836005016000828054600181600116156101000203166002900480601f0160208091040260200160405190810160405280929190818152602001828054600181600116156101000203166002900480156103fa5780601f106103cf576101008083540402835291602001916103fa565b820191906000526020600020905b8154815290600101906020018083116103dd57829003601f168201915b50505050509250818054600181600116156101000203166002900480601f0160208091040260200160405190810160405280929190818152602001828054600181600116156101000203166002900480156104965780601f1061046b57610100808354040283529160200191610496565b820191906000526020600020905b81548152906001019060200180831161047957829003601f168201915b50505050509150809050955095509550955095505091939590929450565b6000806000808581526020019081526020016000209050600160038111156104d857fe5b8160000154146104e95760016104ec565b60005b60ff1691506000821415610529576002600381111561050757fe5b816000018190555082816005019080519060200190610527929190610828565b505b7ffd283cb447d943762a4a15ed682586124d6a0bef7e602b8e7c4f64598f2b31b481600301548583600001548460050186630101000060e01b6040518087815260200186815260200185815260200180602001848152602001837bffffffffffffffffffffffffffffffffffffffffffffffffffffffff19167bffffffffffffffffffffffffffffffffffffffffffffffffffffffff191681526020018281038252858181546001816001161561010002031660029004815260200191508054600181600116156101000203166002900480156106475780601f1061061c57610100808354040283529160200191610647565b820191906000526020600020905b81548152906001019060200180831161062a57829003601f168201915b505097505050505050505060405180910390a18191505092915050565b60008060008087815260200190815260200160002090506000600381111561068857fe5b81600001541461069957600161069c565b60005b60ff16915060008214156106f457600160038111156106b757fe5b8160000181905550428160010181905550848160020181905550838160030181905550828160040190805190602001906106f2929190610828565b505b8385877fb986afe3939dde13a909eefbaa2238ffd440f0da84285a040be518dc43af87c4868633630101000060e01b60405180806020018581526020018473ffffffffffffffffffffffffffffffffffffffff1673ffffffffffffffffffffffffffffffffffffffff168152602001837bffffffffffffffffffffffffffffffffffffffffffffffffffffffff19167bffffffffffffffffffffffffffffffffffffffffffffffffffffffff19168152602001828103825286818151815260200191508051906020019080838360005b838110156107df5780820151818401526020810190506107c4565b50505050905090810190601f16801561080c5780820380516001836020036101000a031916815260200191505b509550505050505060405180910390a481915050949350505050565b828054600181600116156101000203166002900490600052602060002090601f016020900481019282601f1061086957805160ff1916838001178555610897565b82800160010185558215610897579182015b8281111561089657825182559160200191906001019061087b565b5b5090506108a491906108a8565b5090565b6108ca91905b808211156108c65760008160009055506001016108ae565b5090565b9056fea265627a7a723158209da300c2674d8ee9bb8184fc555540ddd78583f338c42e3022048a20b79fb41164736f6c63430005100032",
  "source": "/* Copyright 2019 iExec Blockchain Tech\n*\n* Licensed under the Apache License, Version 2.0 (the \"License\");\n* you may not use this file except in compliance with the License.\n* You may obtain a copy of the License at\n*\n*     http://www.apache.org/licenses/LICENSE-2.0\n*\n* Unless required by applicable law or agreed to in writing, software\n* distributed under the License is distributed on an \"AS IS\" BASIS,\n* WITHOUT WARRANTIES OR CONDITIONS OF ANY KIND, either express or implied.\n* See the License for the specific language governing permissions and\n* limitations under the License.\n*/\n\npragma solidity ^0.5.0;\n\ncontract WorkOrderRegistry\n{\n\tbytes4 constant VERSION = 0x01010000; // 1.1.0.0\n\n\tenum WorkOrderStatus\n\t{\n\t\tNULL,\n\t\tACTIVE,\n\t\tCOMPLETED,\n\t\tFAILED\n\t}\n\n\tstruct WorkOrder\n\t{\n\t\tuint256 status;\n\t\tuint256 timestamp;\n\t\tbytes32 workerID;\n\t\tbytes32 requesterID;\n\t\tstring  request;\n\t\tstring  response;\n\t}\n\n\t// workOrderID → workOrder\n\tmapping(bytes32 => WorkOrder) m_workorders;\n\n\tevent workOrderSubmitted(\n\t\tbytes32 indexed workOrderId,\n\t\tbytes32 indexed workerId,\n\t\tbytes32 indexed requesterId,\n\t\tstring          workOrderRequest,\n\t\tuint256         errorCode,\n\t\taddress         senderAddress,\n\t\tbytes4          version);\n\n\tevent workOrderCompleted(\n\t\tbytes32 requesterId,\n\t\tbytes32 workOrderId,\n\t\tuint256 workOrderStatus,\n\t\tstring workOrderResponse,\n\t\tuint256 errorCode,\n\t\tbytes4 version);\n\n\tconstructor()\n\tpublic\n\t{}\n\n\tfunction workOrderSubmit(\n\t\tbytes32       _workOrderID,\n\t\tbytes32       _workerID,\n\t\tbytes32       _requesterID,\n\t\tstring memory _workOrderRequest)\n\tpublic returns (\n\t\tuint256      errorCode\n\t) {\n\t\tWorkOrder storage wo = m_workorders[_workOrderID];\n\n\t\terrorCode = (wo.status == uint256(WorkOrderStatus.NULL)) ? 0 : 1;\n\n\t\tif (errorCode == 0)\n\t\t{\n\t\t\two.status      = uint256(WorkOrderStatus.ACTIVE);\n\t\t\two.timestamp   = now;\n\t\t\two.workerID    = _workerID;\n\t\t\two.requesterID = _requesterID;\n\t\t\two.request     = _workOrderRequest;\n\t\t}\n\n\t\temit workOrderSubmitted(\n\t\t\t_workOrderID,\n\t\t\t_workerID,\n\t\t\t_requesterID,\n\t\t\t_workOrderRequest,\n\t\t\terrorCode,\n\t\t\tmsg.sender,\n\t\t\tVERSION);\n\n\t\treturn errorCode;\n\t}\n\n\tfunction workOrderComplete(\n\t\tbytes32       _workOrderID,\n\t\tstring memory _workOrderResponse\n\t) public returns (\n\t\tuint256       errorCode\n\t) {\n\t\tWorkOrder storage wo = m_workorders[_workOrderID];\n\n\t\terrorCode = (wo.status == uint256(WorkOrderStatus.ACTIVE)) ? 0 : 1;\n\n\t\tif (errorCode == 0)\n\t\t{\n\t\t\two.status   = uint256(WorkOrderStatus.COMPLETED);\n\t\t\two.response = _workOrderResponse;\n\t\t}\n\n\t\temit workOrderCompleted(\n\t\t\two.requesterID,\n\t\t\t_workOrderID,\n\t\t\two.status,\n\t\t\two.response,\n\t\t\terrorCode,\n\t\t\tVERSION);\n\n\t\treturn errorCode;\n\t}\n\n\tfunction workOrderGet(\n\t\tbytes32      _workOrderID\n\t) public view returns (\n\t\tuint256       status,\n\t\tbytes32       workerID,\n\t\tstring memory request,\n\t\tstring memory response,\n\t\tuint256       errorCode\n\t) {\n\t\tWorkOrder storage wo = m_workorders[_workOrderID];\n\t\treturn (\n\t\t\two.status,\n\t\t\two.workerID,\n\t\t\two.request,\n\t\t\two.response,\n\t\t\t0);\n\t}\n\n}\n",
  "sourcePath": "/home/rranjan/avalon/truffle/proxy-model/contracts/WorkOrderRegistry.sol",
  "compiler": {
    "name": "solc",
    "version": "0.5.16+commit.9c3226ce.Emscripten.clang"
  },
  "schemaVersion": "3.0.23",
  "updatedAt": "2020-02-06T05:46:38.951Z",
  "networkType": "ethereum",
  "devdoc": {
    "methods": {}
  },
  "userdoc": {
    "methods": {}
  }
}